S01800006275696C642F6D6963617A2F6D61696E2E73726563E5
S11300000C9449000C9442050C944C050C94560530
S11300100C9460050C946A050C9474050C94A70A5E
S11300200C947E050C9468000C9468000C94E01702
S11300300C94A90C0C940C050C9422050C948805C2
S11300400C94FB040C94DD0E0C9468000C94680072
S11300500C9468000C9468000C9468000C9468007C
S11300600C9417050C9468000C9468000C946800B8
S11300700C9468000C9468000C9468000C9468005C
S11300800C9468000C9468000C94680000081C1818
S1130090141011241FBECFEFD0E1DEBFCDBF11E09D
S11300A0A0E0B1E0EEE7F7E300E00BBF02C0079089
S11300B00D92AE31B107D9F712E0AEE1B1E001C063
S11300C01D92AE39B107E1F70E9400160C94BE1BD5
S11300D00C9400008FB7F894992708958FBF089562
S11300E0FC0182819927582F442781819927482B25
S11300F0592BCA01892F992786958695837090700C
S11301008230910559F08330910559F0892B19F407
S113011020E030E008C02CE93FEF05C022E030E0E9
S113012002C028E030E0CA0184E0989F812D99271D
S113013011248230910559F08330910559F0892BAF
S113014019F480E090E008C08CE99FEF05C082E0DC
S113015090E002C088E090E0280F391F2A5F3F4FEB
S1130160CF01820F931F0895282F9FB7F894662319
S113017049F0E82FFF27E250FE4F8081882311F0D9
S113018021E006C0E22FFF27E250FE4F608320E00B
S1130190892F99278FBF822F99270895E82F8FB72A
S11301A0F894282F332790E0FF27E250FE4F8081F8
S11301B0861709F491E02FBF892F99270895882382
S11301C011F06E9A08956E980895882311F06F9A2D
S11301D008956F98089580E00E94DF00BA9ABB9852
S11301E0B99AB89A6C9A80E00E94E5006B986A9874
S11301F081E00E94DF00709A8DB18C7F8DB90895E3
S11302000F931F93CF93DF93182F8FB7F894C82FB2
S1130210DD270C2F61E080E00E94B400882321F0E8
S1130220CFBF85E090E024C0809116018823A1F41B
S113023080912301823081F409C082E080932301FC
S1130240109216010E94EB00B89AC0981093130103
S113025080E00FBF99270CC080912301882369F3A4
S11302608FB7F89499271092FE018FBF81E0F1CFE8
S1130270DF91CF911F910F910895282F9FB7F89484
S1130280E82FFF27E45BFE4F80818F3F81F4E091EC
S11302909402E21771F40BC02093860204C0FF2776
S11302A0E45BFE4F20832093940220E007C025E006
S11302B005C0809186028F3F91F7EECF892F992751
S11302C08FBF822F992708951F93182F81E00E94D2
S11302D0DF001FB9779BFECF8FB199271F91089537
S11302E0FF920F931F93CF93DF93F82E8B018FB759
S11302F0F894C82FDD2760E080E00E94CE008823B8
S113030021F0CFBF80E090E00CC0CFBF8F2D0E94C2
S11303106401812F99270E946401802F0E94640147
S11303209927DF91CF911F910F91FF9008958F929C
S11303309F92AF92BF92CF92DF92EF92FF920F9370
S11303401F93CF93DF938FB7F8949927C0908F02B0
S1130350D09090028090F7019090F801C0918701AD
S1130360D09188012091310130913201FAE0AF2E11
S1130370B12CAC0EBD1E2A153B0508F459018FBFE4
S11303807401EC0EFD1E86010C0F1D1F14C0C11458
S1130390D10419F0F801808101C080E00E94640159
S11303A08114910411F0F701808321960894E11CD3
S11303B0F11C0F5F1F4FC5010197C817D90738F308
S11303C081E00E94E5009FB7F894C114D10431F094
S11303D0CC0EDD1EF60180818FB901C01FB8D09309
S11303E08801C0938701892F99278FBF80E090E00F
S11303F0DF91CF911F910F91FF90EF90DF90CF90FD
S1130400BF90AF909F908F9008952FB7F8943327A3
S113041050933201409331019093900280938F0264
S11304207093F8016093F70110928801109287018C
S11304302FBF452B29F08FB10E949701992708956A
S113044089E00E943D0180E090E008958FB7F89420
S11304509927109200028FBF08957FB7F89462B76E
S1130460209134013091350140913601509137018A
S113047006B601FE0FC081B792B7280F311D411D8A
S1130480511D2F5F3F4F4F4F5F4F290F311D411DAE
S1130490511D04C0260F311D411D511D872F992761
S11304A08FBFCA01B90108952F923F924F925F9274
S11304B06F927F928F929F92AF92BF92CF92DF9270
S11304C0EF92FF920F931F93CF93DF93CDB7DEB7D5
S11304D029970FB6F894DEBF0FBECDBF6FB76983FF
S11304E0F89420906C0130906D0140906E01509012
S11304F06F016624772488241EE4A12EB3E8BB2E62
S1130500CC24DD24EE24FF2400E010E0222D332D42
S1130510442D552D662D772D882D90E00E947E194F
S11305202A833B834C835D836E837F83888799878B
S1130530822E932EA42EB52E2401350100E20E94B2
S11305407C1AA22EB32EC42ED52EA3019201569549
S11305504795379527952A0D3B1D4C1D5D1D57FF6B
S113056005C05F772F5F3F4F4F4F5F4F20936C0164
S113057030936D0140936E0150936F01E9818E2F8A
S113058099278FBFCA01B90129960FB6F894DEBF27
S11305900FBECDBFDF91CF911F910F91FF90EF90D0
S11305A0DF90CF90BF90AF909F908F907F906F908F
S11305B05F904F903F902F900895DF92EF92FF92BB
S11305C00F931F938FB7F894282F3327D22E91B708
S11305D082B746B7981711F041FF02C02FBF6AC017
S11305E0809186018823E1F10E942D02E090FA01B6
S11305F0F090FB010091FC011091FD012091460156
S11306003091470140914801509149016E197F0989
S1130610800B910B621773078407950720F01092E3
S1130620860171E01EC02E0D3F1D401F511F809199
S1130630340190913501A0913601B0913701281B06
S1130640390B4A0B5B0B273E31054105510540F43C
S1130650822F223010F070E005C070E082E002C00A
S113066070E086EE682F615000B601FCFDCF82B7C2
S1130670681709F46F5F209134013091350140917E
S1130680360150913701DA01C9010196A11DB11D4E
S1130690860F911DA11DB11D82179307A407B507ED
S11306A010F4622F609561BFDFBE772319F08CE0F0
S11306B00E943D011F910F91FF90EF90DF900895EC
S11306C0AFB7F894BB27E1E0E09386016093FA01A9
S11306D07093FB018093FC019093FD0120934601EC
S11306E0309347014093480150934901AFBF0E94A2
S11306F0DD02089580E880934A0110926601109209
S1130700890210928502109261010895CF93DF93BC
S1130710FC0115A6DC019E96ED011B821A8219824A
S113072080E886A7DF91CF9108958FB7F894609100
S1130730BF017091C0012CB53DB506B602FE04C0E0
S11307406F5F7F4F2CB53DB599278FBF88279927B9
S1130750CB017727662744275527622B732B842BDD
S1130760952B0895EF92FF920F931F930E94950388
S11307707B018C01209176013091770140917801C1
S1130780509179018091710190917201A09173014E
S1130790B0917401820F931FA41FB51FE216F306D4
S11307A00407150730F082179307A407B50758F01C
S11307B005C082179307A407B507E0F5E816F90604
S11307C00A071B07B8F59C01AD012E193F09400B20
S11307D0510B213060E8360760E0460760E05607B9
S11307E068F180E090E8A0E0B0E0E80EF91E0A1F8E
S11307F01B1FE0927601F092770100937801109329
S1130800790180E090E8AFEFBFEFE80EF91E0A1F10
S11308101B1F2050304840405040209371013093BA
S11308207201409373015093740120E030E840E07A
S113083050E014C020E030E040E050E080937601C6
S113084090937701A0937801B0937901109271018C
S1130850109272011092730110927401A901B701F0
S11308602CB53DB5C9018E199F09039684179507C8
S113087020F0B9016D5F7F4F02C0640F751F6115D1
S1130880710511F461E070E0615070407BBD6ABD98
S113089080E186BF87B7806187BF1F910F91FF906A
S11308A0EF9008950F931F930FB7F8941127609357
S11308B07601709377018093780190937901209366
S11308C071013093720140937301509374010E943B
S11308D0B2030FBF1F910F9108958FB7F894992712
S11308E0609129028FBF85E0689FB0011124625D89
S11308F07E4F706488E10E94700108951F931FB7B2
S1130900F89480916001882319F460E070E009C0D4
S113091060E080918E02882309F461E081E0682719
S1130920772780916901882319F480E090E00AC058
S113093090E080912002882309F491E081E09827D7
S1130940892F9927762F6627770F770F770F54E033
S1130950880F991F5A95E1F7826E9262682B792B62
S113096081E10E947001812F99278FBF1F91089503
S113097097B79F7D97BF90E296BF882319F08EB5F5
S1130980806402C08EB58F7B8EBD87B7806287BFBF
S113099080E090E00895AF92BF92CF92DF92EF9201
S11309A0FF920F931F93CF93DF93CDB7DEB72897B2
S11309B00FB6F894DEBF0FBECDBF20E070E0E0912B
S11309C00001F091010132E14DE65CE46FE48091B5
S11309D001019E2F28960FB6F894DEBF0FBECDBF3F
S11309E0DF91CF911F910F91FF90EF90DF90CF9007
S11309F0BF90AF9008951F920F920FB60F921124DB
S1130A008F9383B783BF00B600FCFDCF8F910F9007
S1130A100FBE0F901F90189578941F920F920FB6E7
S1130A200F9211240F900FBE0F901F901895789479
S1130A301F920F920FB60F9211240F900FBE0F90BA
S1130A401F90189578941F920F920FB60F9211244D
S1130A502F933F938F939F932FB7F89433278091CD
S1130A60BF019091C00101969093C0018093BF0192
S1130A702FBF9F918F913F912F910F900FBE0F9099
S1130A801F9018951F920F920FB60F9211240F907A
S1130A900FBE0F901F9018951F920F920FB60F92D2
S1130AA011240F900FBE0F901F9018951F920F9254
S1130AB00FB60F9211240F900FBE0F901F90189530
S1130AC01F920F920FB60F9211240F900FBE0F902A
S1130AD01F9018951F920F920FB60F9211240F902A
S1130AE00FBE0F901F9018951F920F920FB60F9282
S1130AF011240F900FBE0F901F9018951F920F9204
S1130B000FB60F9211240F900FBE0F901F901895DF
S1130B101F920F920FB60F9211242F933F934F936E
S1130B205F936F937F938F939F93AF93BF93EF9351
S1130B30FF9383B783BF00B600FCFDCF81B799272D
S1130B400196AA27BB2720913401309135014091A9
S1130B50360150913701280F391F4A1F5B1F20931C
S1130B603401309335014093360150933701789422
S1130B700E94DD02FF91EF91BF91AF919F918F9100
S1130B807F916F915F914F913F912F910F900FBE85
S1130B900F901F901895EF920F931F93AE2D99E02D
S1130BA0899FF0011124EF53FE4F408351836283E8
S1130BB073830483158326833783A17080858E7F96
S1130BC08A2B826080878DE00E943D011F910F91E6
S1130BD0EF900895AF92BF92CF92DF92EF92FF927F
S1130BE00F931F93F82E5A016B010E942D02AB0143
S1130BF0BC01F1E0EF2E960185018F2D0E94CB05FB
S1130C001F910F91FF90EF90DF90CF90BF90AF9026
S1130C1008950F931F93182F0FB7F89461E080E0A5
S1130C200E94B400882371F510931301809116017A
S1130C308823A9F580912301823089F588E00CC0CE
S1130C400E94EB0080912301882349F481E0809382
S1130C502301109262018AE00E943D012AC0809122
S1130C6075018F3F31F5E0911501EE2311F11CC0A0
S1130C701092140104C0FF27EB58FE4F108210920B
S1130C80150117C081E090E002C0880F991F1A95E2
S1130C90E2F720912201282B209322010AC080919F
S1130CA023018823E1F6CCCF809114018F3F19F7FB
S1130CB0DFCF802F99278FBF80E090E01F910F91A5
S1130CC008951F9383E00E9400019927182F882319
S1130CD019F083E00E940906812F99271F91089536
S1130CE0CF92DF92EF92FF920F931F93CF93DF93F4
S1130CF08C01F62E6A01E22E8FB7F894C82FDD27F7
S1130D0060E080E00E94CE00882321F0CFBF80E025
S1130D1090E01EC0CFBF0F0D111D802F80680E9470
S1130D206401F82E16950795802F807C0E9464013B
S1130D300E2D0AC0EE2DFF27E01BF109EC0DFD1D61
S1130D4080810E94640101500023A1F78F2D99270F
S1130D50DF91CF911F910F91FF90EF90DF90CF9093
S1130D600895CF93DF93CDB7DEB72C970FB6F894E1
S1130D70DEBF0FBECDBF8FB7F894282FAE014F5FF3
S1130D805F4FDA01E1E2F2E088E001900D928150D8
S1130D90E1F780916701909168018987892F9927EC
S1130DA08A8780917A0190917B018B87892F99277B
S1130DB08C872FBF2CE060E080E691E00E947006F3
S1130DC02C960FB6F894DEBF0FBECDBFDF91CF9146
S1130DD00895EF92FF921F93CF93DF93E0906A01FF
S1130DE0F0906B01F70182A59927182F882309F445
S1130DF01FE1C09880915F01811749F0612F772727
S1130E006F717070606E706885E10E94700110935C
S1130E105F01F70110818FB7F894C82FDD2760E0D8
S1130E2080E00E94CE00882311F0CFBF12C0CFBF54
S1130E308EE390E090937F0180937E018EE30E9485
S1130E4064011150412F552760E070E0C7010E94F2
S1130E500502DF91CF911F91FF90EF9008950F93BA
S1130E601F93CF93DF93EC010FB7F89411270E94DF
S1130E707000FC018FE380830FBF10928C021092EC
S1130E808B0261E082E00E94B400882319F085E0BF
S1130E9090E072C080912B028F5F80932B0281506F
S1130EA08B838FB7F894082F112762E081E00E94AA
S1130EB0CE00882329F40FBF0E94260281E05BC084
S1130EC08FB7F894992724E02093FF018FBFD09324
S1130ED08501C09384010FBFFE0131968181298170
S1130EE09927982F88273327822B932B80729C7CF9
S1130EF08983892F992781832981982F88273327EC
S1130F002164822B932B8983892F992781831CA6A3
S1130F1018A619A619AA18AA1FA680E88EA761E028
S1130F206093020240918401509185018FB7F89437
S1130F30282F332780912401909125018830910531
S1130F4011F0019711F02FBF15C082E090E090934B
S1130F502501809324016093950250936B01409383
S1130F606A01109233012FBF0E946106882311F495
S1130F700E94E90680E09927DF91CF911F910F919C
S1130F800895CF93DF93DA01422F2D3118F082E0D8
S1130F9090E05EC0ED018B876E83872F99278F8346
S1130FA02FB7F894332780916701909168012FBF80
S1130FB0FD018483892F992785832FB7F8943327DC
S1130FC080911701909118012FBF8887892F992745
S1130FD089873196818129819927982F88273327FA
S1130FE020643868822B932B8983892F99278183E6
S1130FF0435F4C934D5080911A01882359F010920D
S11310001A01642FCD010E942F079927282F8823C6
S1131010A9F417C0842F99279093830180938201A8
S1131020B0932901A09328018EE00E943D01809194
S11310301A01882349F489E090E00AC08FEF809375
S11310401A01822F992704C01092700180E090E069
S1131050DF91CF91089510921201E0918901F091EE
S11310608A01309721F080918A0280FF08C081E0D4
S113107080931201089581E00E943D01089520812A
S11310802D50332767817727762F66278681992706
S1131090682B792BAF0183850E94C107882359F7F8
S11310A00895CF93DF9380911201882391F4C09126
S11310B08901D0918A01C617D70759F410928A0181
S11310C0109289010E942B08CB58D14011F4109240
S11310D06401DF91CF910895CF93DF93FB01DB018E
S11310E016968683892F9927ED0189838AE0838761
S11310F08091890190918A01892B19F085E090E013
S11311002BC070938A0160938901435F40834D50E3
S113111080911201882319F480E090E01DC083853A
S1131120ED0169817727762F662726813327622B85
S1131130732B10921201242FAF010E94C10799272B
S1131140282F882339F081E08093120110928A01BC
S113115010928901822F9927DF91CF910895EF9200
S1131160FF920F931F931092970180910001809337
S113117098010E94540260939F01272F382F492F12
S1131180552720939E019C014427552720939D01B8
S1131190692F77278827992760939C0149E06BE89A
S11311A071E089E090E00E946C08882309F03FC058
S11311B081E08093640180931B02E0909E01FF24F0
S11311C000271127102F0F2DFE2CEE2420919C01B7
S11311D0332744275527522F44273327222780912A
S11311E09D019927AA27BB27DC0199278827282B4B
S11311F0392B4A2B5B2B80919F019927AA27BB2768
S1131200282B392B4A2B5B2BE22AF32A042B152B90
S1131210E0921C02F0921D0200931E0210931F0222
S113122044EF51E060E070E082E00E94EA051F9123
S11312300F91FF90EF900895EF92FF920F931F93F9
S113124080932C0292E090939701909100019093E7
S11312509801809399010E94540260939F01272F63
S1131260382F492F552720939E019C014427552749
S113127020939D01692F77278827992760939C01E4
S113128049E06BE871E089E090E00E946C088823F3
S113129009F03FC081E08093640180932C01E090C9
S11312A09E01FF2400271127102F0F2DFE2CEE2462
S11312B020919C01332744275527522F4427332755
S11312C0222780919D019927AA27BB27DC01992712
S11312D08827282B392B4A2B5B2B80919F01992738
S11312E0AA27BB27282B392B4A2B5B2BE22AF32A6C
S11312F0042B152BE0922D01F0922E0100932F0167
S11313001093300144EF51E060E070E083E00E940C
S1131310EA051F910F91FF90EF900895AF92BF924D
S1131320CF92DF92EF92FF920F931F93CF93DF93AD
S11313305B016C01C0E0D0E0E1ECF1E0608561FFAD
S11313407CC02081318142815381E480F580068113
S11313501781D601C501821B930BA40BB50B8E1507
S11313609F05A007B10708F468C060FF03C06D7F44
S1131370608708C02E0D3F1D401F511F20833183FD
S113138042835383C330B1F0C43030F4C13079F0B8
S1131390C23009F058C006C0C430A1F0C53009F00D
S11313A052C01DC080911B02882309F44CC00E94C6
S11313B0AF0849C080912C01882309F444C080916E
S11313C02C020AC00E94540223E030E040E050E0C6
S11313D00E94321BDC01CB010E941C0934C00E9414
S11313E0540224E630E040E050E00E94321B7B01CE
S11313F08C010E94540224E0209397012091000163
S11314002093980123E030E040E050E00E94321B3A
S113141060939901E0929B01EF2CFF24E0929A01E2
S113142049E06BE871E089E090E00E946C08882351
S113143051F481E08093640106C021963996C63048
S1131440D10509F07BCF8DE00E943D01DF91CF9162
S11314501F910F91FF90EF90DF90CF90BF90AF90CE
S113146008951F93CF93DF93182F8FB7F894C82F45
S1131470DD2760E080E00E94CE00882321F0CFBF0A
S113148080E090E005C0CFBF812F0E9464019927BE
S1131490DF91CF911F910895EF92FF920F931F93C5
S11314A0CF93DF93182F7B01042F8FB7F894C82FA5
S11314B0DD2760E080E00E94CE00882321F0CFBFCA
S11314C080E090E014C0CFBF1064812F99279093DF
S11314D07F0180937E010E946401182F402F5527BD
S11314E0B70180E090E00E940502812F9927DF91E7
S11314F0CF911F910F91FF90EF900895C098609144
S11315002A0170912B0141E08FE30E944C0A089557
S113151082E090E090935C0180935B0181E0809392
S1131520660120E030E080911301843011F421E061
S113153030E0232B29F484E00E940001882319F46D
S11315400E947E0A089584E00E94090608951F926D
S11315500F920FB60F9211242F933F934F935F93E3
S11315606F937F938F939F93AF93BF93EF93FF9367
S113157080915B0190915C01019749F482E090E0D5
S113158090935C0180935B010E94880A05C080915E
S113159061018F5F80936101FF91EF91BF91AF91E2
S11315A09F918F917F916F915F914F913F912F9177
S11315B00F900FBE0F901F9018951F9380912201DA
S11315C0882309F04BC0109113011F3F09F046C056
S11315D060E00E94CE00882309F440C081E080933B
S11315E02A0280914B018823E1F110922A0285E0BE
S11315F090E045C0923069F5C09A8091140120E0D2
S113160030E08F3F11F421E030E0232BE9F4109314
S113161016018F3F19F42FEF30E00DC0282F332728
S1131620F901EB58FE4F8081809314018F3F11F430
S11316301093150110832093620181E080932301AC
S11316408AE00E943D0105C0109316011092230107
S113165011C080912301882369F00FC081E090E0DC
S11316600EC08091160190912301882319F29230C3
S113167021F0EFCF80E00E94DF0080E090E01F9136
S113168008951F93CF93DF939FB7F894C92FDD2755
S11316901C2F90911301981721F0CFBF81E090E0A7
S11316A03AC08FEF80931301309122013323F1F478
S11316B08FB7F89499271092FE018FBF0E94DD0A1C
S11316C0CFBF11C02093130181E090E002C0880FC6
S11316D0991F4A95E2F7809538233093220188E0D8
S11316E00E943D011FBF80E090E015C080E065E0EE
S11316F0E32FFF270E94FF1A292F492F5527CF01D7
S1131700042E02C0959587950A94E2F780FDDACFFE
S1131710822F8F5FEFCFDF91CF911F9108951F9399
S1131720CF93DF938FB7F894C82FDD271C2F8091B8
S11317305B0190915C01892B29F484E00E94410BA8
S1131740CFBF1EC01092660180916101882311F001
S1131750B79904C00E9908C0882319F0815080936A
S113176061010E94880A0BC081E090E090935C01C3
S113177080935B011092610184E00E94410B1FBFC2
S1131780DF91CF911F9108950E947A03C09AC09867
S113179088E00E94310A88E00E94310AC09A84E0FD
S11317A00E94410B0E948F0B08951F93182F81E014
S11317B090E0909325018093240110924B010E94A4
S11317C0DD0A8FB7F894992710931E018FBF84E028
S11317D00E943D011F91089561E081E00E94B400E0
S11317E08823E9F48FB7F894282F332780911F01B9
S11317F090912001892B11F02FBF20C081E090E04F
S11318009093200180931F012FBFDD9A0E949503BE
S113181024E130E040E050E00E9452040FC062E056
S113182081E00E94CE00882319F089E090E00895B9
S113183061E081E00E94CE00882319F080E090E00E
S1131840089585E090E00895CF92DF92EF92FF92A1
S11318500F931F93CFB6F894DD240E945402DC0149
S1131860CB0166E470E00E940B1B0BE0E02EF12C30
S1131870E80EF91EF0929202E09291020E94950302
S113188000271127A80197010E945204CFBE1F917F
S11318900F91FF90EF90DF90CF9008951F93CF9317
S11318A0DF938FB7F894C82FDD271C2F8091240174
S11318B0909125010897C9F489E00E94310A83E0D8
S11318C00E94410BC09A81E090E09093250180939F
S11318D024018FB7F894992723E020931E018FBF2A
S11318E084E00E943D01CFBF30C0C0988091950232
S11318F0882311F085E001C084E00E94310A83FD51
S113190009C080E00E94310A83FF04C085E090E0B2
S113191020E003C083E090E021E0909325018093D0
S11319202401C09A1FBF222341F01092330183E0A7
S11319300E94410B0E94240C08C00E94950320E4DD
S113194031E040E050E00E945204DF91CF911F91BA
S1131950089578941F920F920FB60F9211241F933B
S11319602F933F934F935F936F937F938F939F93A3
S1131970AF93BF93EF93FF9387B78F7E87BF78941E
S11319801FB7F8948091710190917201A091730135
S1131990B09174010097A105B10509F051C080917F
S11319A02401909125018530910561F186309105DE
S11319B030F48330910549F0049781F51AC08730DB
S11319C09105F1F0089751F514C0869B0FC084E08F
S11319D090E090932501809324010E94950327E0D1
S11319E030E040E050E00E94520418C00E94240CF1
S11319F015C00E946106882389F40E944E0C0EC013
S1131A0080E00AC089E00E94310A81E00E94B804A3
S1131A1083E00E94410B87E00E94D50B80911F0157
S1131A2090912001019771F482E090E0909320015D
S1131A3080931F01DE98DE9A80E00E94090602C0AE
S1131A400E94B203812F99278FBFFF91EF91BF911D
S1131A50AF919F918F917F916F915F914F913F9142
S1131A602F911F910F900FBE0F901F901895EF921A
S1131A70FF920F931F93CF93DF938B0180917E018D
S1131A8090917F0186FF40C18F7B8F3309F08EC117
S1131A90C0912A01D0912B01588150935D0180910E
S1131AA05B0190915C018530910509F443C0863057
S1131AB0910509F48AC0029709F01FC185E090E0FE
S1131AC090935C0180935B0140914A01852F992793
S1131AD00196242F3327281739074CF1B79906C0EC
S1131AE00E9904C0451B415040934A0140915D0149
S1131AF04A32E8F44423A1F0BE016F5F7F4F4830BF
S1131B0018F047E050E007C086E090E090935C0155
S1131B1080935B01552780E090E00E94050246C156
S1131B2010926601C09A84E00E94410BE3C00E94B7
S1131B30C40B3CC186E090E090935C0180935B0110
S1131B4080916901882309F439C080912002882397
S1131B50A9F5898185FF32C08F814E812FB7F89412
S1131B60332760917A0170917B012FBF9927982FB9
S1131B7088275527842B952B8617970759F08F8133
S1131B802E819927982F88273327822B932B8F5FB9
S1131B909F4FA1F489818770813081F4C09AC098E5
S1131BA08AE00E94310AC09AC09840915D01475072
S1131BB02896BE018FE30E944C0AF8C040915D0153
S1131BC0475055272896BE01A6CFC09A809161013F
S1131BD0882339F484E00E94410B809161018823B9
S1131BE011F0B7990AC00E9B08C090918502992301
S1131BF021F080915D018B3038F480912A0190911D
S1131C002B010E9486033DC0913001F5E0918902C9
S1131C10FF27EE0FFF1FEE0FFF1FEF5CFD4F20812C
S1131C20318142815381E0912A01F0912B0121AB52
S1131C30BB27A52F942F832F80ABCA01AA27BB27CC
S1131C4087A7252F33274427552726A78091890264
S1131C509927019668E070E00E941F1B8093890217
S1131C6080918502815080938502882351F0809170
S1131C702A0190912B010E948603109289021092EE
S1131C80850280915D01FE01E80FF11D808187FFCF
S1131C9031C0012B79F169816770E0912A01F091DB
S1131CA02B01623019F5A0916A01B0916B01109774
S1131CB009F180912401909125010797D9F4ED0150
S1131CC09B8183819817B1F487B78F7E87BF9081FA
S1131CD081E08CA7E90FF11D8291319688A780815C
S1131CE08F7789A780E00E94D50B04C0613011F47E
S1131CF08BE02AC00E948F0B59C010926601C09AD3
S1131D0084E00E94410B52C08E3309F04FC0C09A48
S1131D1080912401909125010897C9F4C09889E025
S1131D200E94310AC09A83E00E94410B81E090E056
S1131D3090932501809324018FB7F894992723E089
S1131D4020931E018FBF84E00E943D012FC080912B
S1131D509502882349F484E090E0909325018093D0
S1131D6024010E944E0C22C083E00E94410B83E0B8
S1131D7090E090932501809324010E945402DC0199
S1131D80CB0166E371E00E940B1B2BE0E22EF12CE9
S1131D90E80EF91EF0924501E09244010E94950379
S1131DA000271127A80197010E945204DF91CF91C7
S1131DB01F910F91FF90EF9008951F920F920FB60D
S1131DC00F9211242F933F934F935F936F937F93BD
S1131DD08F939F93AF93BF93EF93FF932FB1E091B2
S1131DE0F701F091F801309739F0809187019091D3
S1131DF08801E80FF91F2083809187019091880161
S1131E000196909388018093870180E00E94E50009
S1131E104091310150913201809187019091880164
S1131E208417950718F40E9497011CC06091F7016C
S1131E307091F80180918F02909190021092F801B4
S1131E401092F7011092900210928F0210923201B8
S1131E501092310110928801109287012FB120E075
S1131E600E94370DFF91EF91BF91AF919F918F9198
S1131E707F916F915F914F913F912F910F900FBE82
S1131E800F901F9018958F929F92AF92BF92CF920E
S1131E90DF92EF92FF920F931F93CF93DF93CDB70F
S1131EA0DEB7A8970FB6F894DEBF0FBECDBF87305C
S1131EB009F44DC1883098F4833009F4CEC08430DD
S1131EC038F4813009F450C0823008F067C022C071
S1131ED0853009F419C1863008F032C1C4C08B3092
S1131EE009F461C28C3038F4893009F425C28A308F
S1131EF008F045C264C18D3009F4D4C58D3008F4AE
S1131F009CC58E3009F04CC621C62FBF49C6C601F8
S1131F10B501C5C580918A02882309F441C640E011
S1131F2051E090918A02852F8923C1F0E42FFF2785
S1131F30EE0FFF1FE757FE4F20813181118210827F
S1131F40852F8095982390938A02442339F42B5843
S1131F50314009F022C6109264011FC64F5F483019
S1131F6008F01EC6550FDDCF10911201E12FFF2797
S1131F70EE0FFF1FE757FE4FE080F18011821082C1
S1131F800E942B08112309F00BC65BE8E51651E00B
S1131F90F50609F005C61092640102C60FB7F8945D
S1131FA0112781E00E94B80471E0E72EF12CF09231
S1131FB02501E09224011092260110924B01109207
S1131FC05F010FBF0FB7F89411270E947A03F092B4
S1131FD05C01E0925B011092660189B78F7B89BF37
S1131FE080E488BF8AB780628ABF8AB78F7E8ABF3F
S1131FF089B7806489BF0FBF8FB7F894082F112762
S113200080911F0190912001049719F483E00E94AC
S1132010310A0FBF0FB7F8941127C09A80E00E94CD
S1132020410B0FBF8FB7F894992722E02093FF014B
S11320308FBFE0910001F0910101E930F10509F44D
S1132040AFC5EE0FFF1FE050FF4F4081518166275F
S1132050772781E00E94EA05A3C58FB7F8949927F2
S11320601092FF0172C08FB7F8949927F0901E0167
S11320708FBF63E081E00E94CE00882359F10FB73F
S1132080F8941127109225011092240187B78F7EAE
S113209087BF87B78F7D87BF83E00E94410BC09ABB
S11320A00FBF0FB7F894112710925C0110925B01D7
S11320B00E947A03C09A89B78F7B89BF0FBF1092A1
S11320C0200110921F01DE98DD98DE9A83E00E94C1
S11320D03D0107C08FB7F894992722E02093FF01B0
S11320E08FBF00918401109185010E942602809186
S11320F08B0290918C02892B09F052C58FEF80934B
S11321001A014F2DB80140C58FB7F894282F3327F3
S1132110122F80919302882309F0F7CE81E08093F7
S1132120930280911F0190912001049721F481E092
S11321300E94090603C086E00E943D011FBF30C50E
S11321408FB7F8949927109293028FBF29C58FB740
S1132150F894282F332780912101882309F0D5CEC4
S11321602FBF80B3992756E0969587955A95E1F746
S1132170182F117090917C0180917D018917D9F0FD
S11321801917C9F484E090E09093200180931F0113
S11321908FB7F894992721E0209321018FBF60E045
S11321A070E08DE10E9470010E94B106C09AC0984F
S11321B082E00E943D0110937D0187E06DC08FB7DE
S11321C0F8949927109113018FBF123009F467C056
S11321D0133030F4112359F0113009F0E1C448C030
S11321E0133009F476C0143009F0DAC4A2C0C098E0
S11321F08FB7F894082F112780911F019091200127
S11322000297A1F583E090E09093200180931F0151
S113221068E170E08DE10E94700181E080937C01AF
S11322201092210180B3992746E0969587954A95A7
S1132230E1F78170907080937D0187E00E943D01F9
S113224081E00E94310A6FE772E08CE10E94700124
S11322500E946D040E947E0466E57AE287E10E9492
S113226070016FEF70E885E10E9470010FBF98C4A0
S1132270C09886E00E94310A0E946D040E947E0488
S11322800E94B106C09AC09883E00E94310AC09AA5
S113229081E00E94410B86E00E943D0181C4C09808
S11322A08FB7F894082F112760E080E00E94CE00D9
S11322B0882311F00FBF0AC00FBF83E50E94640199
S11322C080E00E94640180E00E946401C09A82E080
S11322D02DC08FB7F8949927209124018FBF243003
S11322E039F0283041F0223001F50E94E90658C443
S11322F00E944E0C55C4C09889E00E94310AC09ACD
S113230083E00E94410B8FB7F894992721E030E0D5
S113231030932501209324018FBF8FB7F894992718
S113232010931E018FBF84E0B7CF83E00E94410B5E
S113233037C40E947E0A34C40FB7F8941127409121
S11323403101509132016091F7017091F80180914F
S11323508F02909190021092F8011092F70110925E
S1132360900210928F021092320110923101109259
S113237088011092870120E00E94370D77CF2FB794
S1132380F8943327809162018093160182E0809350
S113239023012FBF80911601882309F001C4B89A44
S11323A0C09888E079CFA0912A01B0912B01FC90CC
S11323B09D012F0D311DF9018081881F8827881FF9
S11323C0FD0183A7F90180818F77FD0181A7215049
S11323D03040F9018081FD0180A7A0912A01B091CC
S11323E02B01FD0132818FB7F89499272091600168
S11323F08FBF222309F490C0832F99279695879540
S113240096958795837090708230910541F5878108
S113241046812FB7F894332760917A0170917B013C
S11324202FBF9927982F88275527842B952B8617FC
S1132430970719F481E090E06CC0FD018781268143
S113244040E050E09927982F88273327822B932B3D
S11324508F5F9F4F11F441E050E0CA015AC00397C7
S113246009F0E2C29E012F5F3F4F41E252E088E053
S1132470FA010190AF01F90101929F018150C1F766
S11324809E012F5D3F4FAE014F5F5F4F88E0FA0121
S11324900190AF01F90101929F018150C1F79E01A2
S11324A0275F3F4FAE014F5D5F4F88E0FA01019017
S11324B0AF01F90101929F018150C1F79E012F5E86
S11324C03F4FAE01475F5F4F88E0FA010190AF01D3
S11324D0F90101929F018150C1F79E01275E3F4F90
S11324E0AE014F5E5F4F88E0FA010190AF01F90140
S11324F001929F018150C1F748E050E0BE01675E40
S11325007F4FCD0106960E94AA1B892B09F08CC22D
S113251003C0882309F488C2FCE0FF1508F084C2D4
S113252080902A0190902B01F4012281822F992717
S113253016E0969587951A95E1F7039719F468E0E4
S113254070E002C062E070E0822F9927969587952B
S11325509695879583709070039719F488E090E0BE
S113256002C082E090E026E030E0820E931E40E05C
S113257050E020E030E0F401E80FF91F8AEF9FEF0C
S1132580880E991E05C08191480F511D2F5F3F4F42
S113259026173707C4F3F40163818FEF80938D020C
S11325A08FB7F894782F20E030E0E8E3F1E0808101
S11325B091818417950731F48281861709F42DC21D
S11325C020938D022F5F3F4F33962430310579F7E6
S11325D07FBF90918D023FB7F8949F3F21F0809187
S11325E02701891799F420912701822F9927FC014B
S11325F0EE0FFF1FE80FF91FE85CFE4F5183408385
S113260062832F5F2370209327010CC0892F9927A1
S1132610FC01EE0FFF1FE80FF91FE85CFE4F51832A
S113262040836283832F99278FBF0FB7F8941127B4
S1132630C4010E947000FC0190810FBFF40183A5C6
S1132640882309F4EDC19F3309F0EAC187814681EB
S11326502FB7F894332760911701709118012FBF99
S11326609927982F88275527842B952B861797070A
S113267061F0878126819927982F88273327822B19
S1132680932B8F5F9F4F09F0CBC1F40183858A3070
S113269009F0C6C1F6E1FF1609F0C2C1809100013C
S11326A090910101F4012485099709F0F3C0422FA8
S11326B05527423009F44BC0443009F4A4C04423E4
S11326C009F0ADC181892289E388A488FF24002709
S11326D01127102F0F2DFE2CEE249927AA27BB2794
S11326E0B82FAA2799278827332744275527A901D4
S11326F033272227822B932BA42BB52BBB24CC244A
S1132700DD248A299B29AC29BD29E82AF92A0A2B28
S11327101B2B85859927FC01EB56FD4F41E0D42EF8
S1132720D082D0929701E0929F015527412F302FFC
S11327302F2D20939E0198014427552720939D0116
S1132740E12EFF2400271127E0929C0151C0F401DF
S113275081892289E388A488FF2400271127102F68
S11327600F2DFE2CEE249927AA27BB27B82FAA27C2
S113277099278827332744275527A9013327222758
S1132780822B932BA42BB52BBB24CC24DD248A29A8
S11327909B29AC29BD29E82AF92A0A2B1B2B8585FC
S11327A0668577279927FB01B3E0EE0FFF1FBA95E3
S11327B0E1F7E80FF91FEE5FFD4FA1E0DA2ED082BA
S11327C023E020939701E0929F015527412F302F5A
S11327D02F2D20939E0198014427552720939D0176
S11327E0E12EFF2400271127E0929C0160939901B8
S11327F049E06BE871E00E946C08882309F010C17D
S1132800D09264010DC1F4018585682F7727FB01FF
S1132810EB56FD4F8081882309F402C1F4018785BA
S113282020899927982F88273327822B932B268555
S113283033274093970160939801209399018093E3
S11328409B01892F992780939A01890193E0000FB6
S1132850111F9A95E1F70D5F1D4F81E0E82EF12CD1
S1132860F8018081882359F049E06BE871E0C701E1
S11328700E946C08882319F481E0809364010F5F3F
S11328801F4F0894E11CF11CF9E0EF16F10409F460
S1132890C7C0E6CF822F9927833009F479C08430EA
S11328A009F4BEC0813009F0BAC080911B028130A6
S11328B009F0B6C0F4018189E2882389A48833270A
S11328C044275527542F432F322F22279927AA27ED
S11328D0BB27B82FAA2799278827FF240027112769
S11328E08701FF24EE248E299F29A02BB12BBB2422
S11328F0CC24DD248A299B29AC29BD29282B392BFA
S11329004A2B5B2B80911C0290911D02A0911E0208
S1132910B0911F0282179307A407B50709F080C07E
S113292010921B0210921C0210921D0210921E02A1
S113293010921F020E94540228E833E140E050E064
S11329400E94321BAB01BC014C505E4F6F4F7F4F56
S113295084E00E94EA050E9454027B018C010E94DB
S11329602D025B016C01C801B70128E833E140E0A6
S113297050E00E94321B6C507E4F8F4F9F4FEE24CD
S11329808B019C01B601A50185E00E94CB0548C0DE
S113299080912C01813009F043C0F4018189E288DF
S11329A02389A488332744275527542F432F322FB4
S11329B022279927AA27BB27B82FAA279927882730
S11329C0FF24002711278701FF24EE248E299F2945
S11329D0A02BB12BBB24CC24DD248A299B29AC2930
S11329E0BD29282B392B4A2B5B2B80912D019091EB
S11329F02E01A0912F01B091300182179307A407F3
S1132A00B50771F410922C0110922D0110922E0131
S1132A1010922F011092300103C07FBF01C0480102
S1132A2090922B0180922A018FB7F89499271092E3
S1132A3066018FBF0E948F0BB3C080915E01882313
S1132A4061F520912D0230912E0240912F02509178
S1132A503002EFB7F894FF276091FA017091FB01FF
S1132A608091FC019091FD01E0904601F0904701B6
S1132A7000914801109149016E0D7F1D801F911F27
S1132A80EFBF20932D0230932E0240932F025093D8
S1132A90300210925E010E9460030E942D020E9487
S1132AA08E097EC00E942D025B016C018FB7F894E1
S1132AB09927109286018FBF8FEFE82E8FEFF82EA3
S1132AC08FEF082F8FE7182F60E0E1ECF1E08085AD
S1132AD081FF1CC080819181A281B381A6019501EF
S1132AE0281B390B4A0B5B0BDA01C90124813581A0
S1132AF046815781281B390B4A0B5B0B2E153F056A
S1132B00400751071CF479018A0161E0399631E0EC
S1132B10E73FF307E1F6662309F442C01E141F04DD
S1132B20100611060CF0F3C9E0922D02F0922E0269
S1132B3000932F021093300281E080935E01A8017C
S1132B409701C601B5010E9460032AC090917001EB
S1132B5080911A01981721F190931A019923C9F4CD
S1132B60009128011091290160918201C8010E94FD
S1132B702F07482F5527442399F08FEF80931A018C
S1132B806091280170912901F80183850E94510800
S1132B9007C08FEF80931A0103C0550F41E0C1C9EC
S1132BA0A8960FB6F894DEBF0FBECDBFDF91CF91CC
S1132BB01F910F91FF90EF90DF90CF90BF90AF9057
S1132BC09F908F900895809186028F3FB1F0282FB7
S1132BD03327F901E45BFE4F8081809386028F3FA7
S1132BE011F4809394028FEF80832F3F31F0822F72
S1132BF00E94430F81E090E0089580E090E0089502
S1132C001F93CF93DF93CDB7DEB7E0970FB6F89459
S1132C10DEBF0FBECDBF1FB7F8944FE050E06FEF9B
S1132C2070E08CE491E00E94B71B8FEF80938602E2
S1132C308093940281E08EBD88E080BF83E083BFEF
S1132C408CB59DB54AE72CB53DB52817390708F46E
S1132C504150442311F0C901F6CF92B782B78917C6
S1132C60E9F32CB53DB592B782B78917E9F38CB572
S1132C709DB5821B930B409625E0969587952A95E2
S1132C80E1F7909388028093870213BE83B78EBDC9
S1132C908EB580BF12BE1DBC1CBC8FEF86BF86B72D
S1132CA080937C0080B7992787709070892BD1F727
S1132CB0D29AD19AD09ADA9AD99AD89A15BA8FEF29
S1132CC084BBD498DC981DBC1CBC87B7846087BFC8
S1132CD08EB5887F84608EBD0E94E3158823E1F75A
S1132CE08FEF80936301E8E3F1E08FEF9FEF91832F
S1132CF080831282339621E0E434F207C1F70E9404
S1132D00540260932B02809100019091010101967D
S1132D10AA27BB2780936C0190936D01A0936E0149
S1132D20B0936F0180B7886080BF8BE083BF86EE6D
S1132D3081BF87B7826087BF0E94DD0281E592E090
S1132D4090932B0180932A018E98B89A8C988FEFD8
S1132D50809375011092FE011092FF0110920002FF
S1132D6010920102B89AD69AD59A8FB7F8949927F7
S1132D7020911701309118018FBF30937B0120936C
S1132D807A010E94CB0429A73AA74BA75CA76DA799
S1132D907EA78FA798ABDE019196FE01B99688E0D5
S1132DA001900D928150E1F7DE015196FE01B1963A
S1132DB088E001900D928150E1F7DE015996FE0101
S1132DC0719688E001900D928150E1F7A1E2B2E0A2
S1132DD0FE01799688E001900D928150E1F780918F
S1132DE01901992790936801809367018FE180937B
S1132DF0F9018AE1809329020E94CB0429A73AA70A
S1132E004BA75CA76DA77EA78FA798ABDE01919611
S1132E10FE01B99688E001900D928150E1F7DE0140
S1132E201196FE01B19688E001900D928150E1F770
S1132E30DE011996FE01319688E001900D928150D1
S1132E40E1F7A1E2B2E0FE01399688E001900D922B
S1132E508150E1F7A1E2B2E0FD0137969C918081B7
S1132E608D939083319782E0E432F807B9F781E0DB
S1132E708093600110928E02809369011092200267
S1132E800E94E3158823E1F7812F99278FBF789457
S1132E900E94EC0B80910001909101010997A1F42B
S1132EA0E6E9F2E0119222E0EE39F20709F47BC080
S1132EB0F9CF1192019688309105D9F72F5F3F4FD2
S1132EC02330310509F071C010921B0210922C01BD
S1132ED08FB7F894482F55274BC087B7992783702D
S1132EE09070892B19F4E5E0F0E013C080B79927BE
S1132EF087709070892BD1F781B792B7891B8C307A
S1132F0030F082B7853F18F4E3E0F0E002C0E2E07D
S1132F10F0E087B7887BC1F480917D008B7FA1F4BA
S1132F206E9912C08AB190919A00892B887161F4CC
S1132F308091740082FD08C0379B03C081E090E05B
S1132F4005C085E090E002C080E090E025B78E17D0
S1132F5008F4E82FFF27E457FF4FE491237E206213
S1132F60E22BE5BF78948895F89485B78F7D85BF6B
S1132F70809186028F3F09F4B0CF282F3327F901BF
S1132F80E45BFE4F8081809386028F3F11F480932F
S1132F9094028FEF80832F3F09F49FCF4FBF822F7E
S1132FA00E94430F95CF20E030E0F90113E0EE0FCB
S1132FB0FF1F1A95E1F7ED5FFD4F80E090E079CFB8
S1132FC078941F920F920FB60F9211242F923F9272
S1132FD04F925F926F927F928F929F92AF92BF9225
S1132FE0CF92DF92EF92FF920F931F932F933F9311
S1132FF04F935F936F937F938F939F93AF93BF93FD
S1133000CF93DF93EF93FF93C6B5D7B58FB7F894FB
S1133010282E0E9495039B012C1B3D0B442755270A
S11330202B013C01421A530A640A750A8091240157
S1133030909125018530910521F0069709F0E0C0B3
S1133040BFC086E090E0909325018093240131E095
S1133050332E309265011092260180E00E94B8045C
S1133060E0916A01F0916B0141AABB27A72D962D2F
S1133070852D80ABC301AA27BB2787A7872D992756
S1133080AA27BB2786A7E0916A01F0916B0185A569
S1133090882309F484C06081655077274F01860E28
S11330A0971EF4012081E1808281A3809927AA27B9
S11330B0BB27BA2FA92F982F8827332744275527B2
S11330C0522F442733272227FF2400271127870163
S11330D0FF24EE242E293F29402B512BBB24CC2442
S11330E0DD242A293B294C295D29822B932BA42BEF
S11330F0B52B84199509A609B7098383292F3A2F7B
S11331004B2F552722839D014427552721838B2F3D
S11331109927AA27BB278083C09824E0A40180E0D4
S113312090E00E947006C09AF4012081E1808281BF
S1133130A3809927AA27BB27BA2FA92F982F8827BE
S1133140332744275527522F442733272227FF2488
S1133150002711278701FF24EE242E293F29402B25
S1133160512BBB24CC24DD242A293B294C295D295D
S1133170822B932BA42BB52B840D951DA61DB71D57
S11331808383292F3A2F4B2F552722839D014427D0
S1133190552721838B2F9927AA27BB278083E0916A
S11331A06A01F0916B01818185FF02C030924B016D
S11331B083E00E94410B87B78F7E87BF84997AC0D2
S11331C01092650181E00E94B804E0916A01F091D7
S11331D06B01818185FF0FC087E090E0909325010A
S11331E0809324010E94950320E031E040E050E008
S11331F00E94520403C080E00E94D50B849B5AC0F5
S113320080912601882391F580916501882371F5C9
S113321011E0109365010E94B80480B320918502E7
S1133220283098F4E0918902E20FFF27E770F070EC
S1133230EE0FFF1FEE0FFF1FEF5CFD4F4082518228
S1133240628273822F5F2093850210932601D093AC
S11332508101C093800184992DC0992734E096950B
S113326087953A95E1F7182F117001C010E080910D
S113327065018130F9F4109265010E94B80410923E
S113328026011123B9F48091800190918101C81B1A
S1133290D90B2A9778F480918502882319F08150FC
S11332A08093850280916A0190916B01009711F0DF
S11332B00E9486032FBEFF91EF91DF91CF91BF91C2
S11332C0AF919F918F917F916F915F914F913F91BA
S11332D02F911F910F91FF90EF90DF90CF90BF90AF
S11332E0AF909F908F907F906F905F904F903F90A2
S11332F02F900F900FBE0F901F901895ACE2B0E086
S1133300E4E8F9E10C94731B222E332E442E552E3F
S1133310662E772E882E992EFE013196A8E0119202
S1133320AA95E9F729823A824B825C826D827E8279
S11333308F829886FE013996B8E01192BA95E9F722
S1133340A986BA86CB86DC86ED86FE860F87188B27
S113335089819A81AB81BC8189A79AA7ABA7BCA7B5
S11333607C018D018FEF9FEFA0E0B0E0E822F9220D
S11333700A231B2389A59AA5ABA5BCA51D0144243A
S1133380552489859A85AB85BC858DA39EA3AFA35F
S1133390B8A75C016D018FEF9FEFA0E0B0E0A82219
S11333A0B922CA22DB228DA19EA1AFA1B8A53D01FD
S11333B088249924C801B701A60195010E94541BD1
S11333C069A37AA38BA39CA3C801B701A4019301A9
S11333D00E94541B7B018C01C201B101A60195011D
S11333E00E94541B5B016C01C201B101A401930151
S11333F00E94541B3B014C01EA0CFB1C0C1D1D1DBF
S113340089A19AA1ABA1BCA19D01442755272E0DEA
S11334103F1D401F511F2A153B054C055D0540F417
S113342080E090E0A1E0B0E0680E791E8A1E9B1E49
S1133430CA01AA27BB27860D971DA81DB91D8D8F0C
S11334409E8FAF8FB8A3A9013327222789A19AA100
S1133450ABA1BCA1A070B070280F391F4A1F5B1F1D
S1133460298F3A8F4B8F5C8FA98CBA8CCB8CDC8CD8
S1133470ED8CFE8C0F8D18A1FE01719698E01192CF
S11334809A95E9F7ED8AFE8A0F8B188F2D813E817C
S11334904F8158856DA17EA18FA198A50E94541BD0
S11334A03B014C012D853E854F85588969A57AA538
S11334B08BA59CA50E94541B2D893E894F89588D4C
S11334C0260F371F481F591F260D371D481D591D2C
S11334D02D8B3E8B4F8B588F6D887E888F88988C70
S11334E02A2D3B2D4C2D5D2D662D772D882D992D64
S11334F0E2E1AC960C948F1BA0E1B0E0E2E8FAE1C3
S11335000C94731B222E332E442E552E662E772EAA
S1133510882E992E002309F466C088E0FE013196B6
S113352011928A95E9F729833A834B835C836D83EF
S11335307E838F829887E0E2E01B1E16CCF52D81F6
S11335403E814F815885602F772767FD7095DA019A
S1133550C901062E04C0B695A795979587950A9438
S1133560D2F78D879E87AF87B88B04C0220F331F95
S1133570441F551FEA95D2F789819A81AB81BC819A
S113358004C0B695A795979587956A95D2F7282B89
S1133590392B4A2B5B2B29873A874B875C872984F5
S11335A03A844B845C846D847E848F8498881BC0A9
S11335B01D861E861F86188A2E2F332727FD3095D9
S11335C0309521953F4F8D819E81AF81B88504C090
S11335D0B695A795979587952A95D2F789879A875F
S11335E0AB87BC87DCCF222D332D442D552D662D82
S11335F0772D882D992DE2E160960C948F1B991BF1
S113360079E004C0991F961708F0961B881F7A95D5
S1133610C9F780950895AA1BBB1B51E107C0AA1FD7
S1133620BB1FA617B70710F0A61BB70B881F991F5F
S11336305A95A9F780959095BC01CD01089597FB03
S1133640092E07260AD077FD04D0E5DF06D0002036
S11336501AF4709561957F4F0895F6F790958195CA
S11336609F4F0895A1E21A2EAA1BBB1BFD010DC09A
S1133670AA1FBB1FEE1FFF1FA217B307E407F5071E
S113368020F0A21BB30BE40BF50B661F771F881FFA
S1133690991F1A9469F760957095809590959B0190
S11336A0AC01BD01CF010895629FD001739FF00169
S11336B0829FE00DF11D649FE00DF11D929FF00DBE
S11336C0839FF00D749FF00D659FF00D9927729FF5
S11336D0B00DE11DF91F639FB00DE11DF91FBD0180
S11336E0CF01112408952F923F924F925F926F92CF
S11336F07F928F929F92AF92BF92CF92DF92EF927E
S1133700FF920F931F93CF93DF93CDB7DEB7CA1BFE
S1133710DB0B0FB6F894DEBF0FBECDBF09942A8829
S1133720398848885F846E847D848C849B84AA84D1
S1133730B984C884DF80EE80FD800C811B81AA815E
S1133740B981CE0FD11D0FB6F894DEBF0FBECDBF29
S1133750ED010895FB01DC0104C08D9101908019F5
S113376021F441505040C8F7881B990B0895DC019F
S111377001C06D9341505040E0F70895FFCF23
S113377E01003D00AD000B017301DF014702B102F0
S111378E1F0301FFFFFFFF010022FFFFFF00EA
S9030000FC
